:100000000A128A11FC2F00308A000408840A820731
:1000100000344F34763465347234203456346F34BF
:100020006C34743461346734653400344F3476345E
:100030006534723420344334753472347234653428
:100040006E347434003456346F346C347434203469
:100050002034203420343A3420340034433475348E
:100060007234723465346E34743420343A3420344B
:100070000034673445346C3465346334743472341A
:100080006F346E342034003441340034563400343C
:100188008130831203139F008030831603139F006E
:100198002F30850007308900080083120313861565
:1001A8004130F100EE30F000F00BD828F10BD828E0
:1001B80000008312031386110800F60076088400F5
:1001C8000A128A1103200A128A110038031908003A
:1001D800760884000A128A1103200A128A110A1268
:1001E8008A117C210A128A110130F5007508F60778
:1001F800E228FD01F91F0729F809F909F80A031986
:10020800F90AFD01FD0A7808F0007908F100F20109
:100218008E30FB007B08F3007D08FC007C08F400AE
:100228000A128A11B6227008F8007108F9007208DB
:10023800FA000800F40008307402031C2629F001B3
:10024800F1010800C730F2007208831203139F05FA
:100258007408F20002300310F20DFF3E031D2F292F
:100268000310720DF30073089F045330F200F20B71
:100278003B29831203131F151F1940291E08F1017A
:10028800F107831603131E08F001F0070800F400B5
:100298008312031306114130F300EE30F200F20B23
:1002A8005329F30B532900007408F0398312031300
:1002B80086000A128A11D1200A128A114130F300ED
:1002C800EE30F200F20B6629F30B66290000740881
:1002D800F20003300310F20DFF3E031D6E290310D8
:1002E800720D8312031386000A128A11D1200800A6
:1002F800F4008312031306154130F300EE30F200C8
:10030800F20B8429F30B842900007408F0390438AF
:100318008312031386004130F300EE30F200F20B33
:100328009329F30B932900000A128A11D1200A128B
:100338008A117408F20003300310F20DFF3E031D0A
:10034800A0290310720D04388312031386000A12C1
:100358008A11D120080083120313A101FC1FBB29B5
:10036800FB09FC09FB0A0319FC0AA101A10AFA1FEF
:10037800C229F909FA09F90A0319FA0A7A08790463
:100388000319EF29A001A00AFA1BD629013003108E
:10039800F90DFA0DFF3E031DCB290130FD007D0844
:1003A800A007C8297A087C02031DDC2979087B028A
:1003B800031CE4297908FB027A08031CFC03FC02ED
:1003C80001300310FA0CF90CFF3E031DE52901303A
:1003D800A002031DD62921080319F729FB09FC09E6
:1003E800FB0A0319FC0A7C08FA01FA077B08F901E1
:1003F800F9070800F601F11F082AF009F109F00AC7
:100408000319F10AF601F60AF31F132AF209F30990
:10041800F20A0319F30A0130F4007408F606F7012A
:10042800F8017108700403194A2AF501F50AF11B4D
:10043800292A01300310F00DF10DFF3E031D1E2A7D
:100448000130F4007408F5071B2A01300310F70D7A
:10045800F80DFF3E031D2A2A71087302031D362A70
:1004680070087202031C3F2A7008F2027108031C0C
:10047800F303F302771401300310F10CF00CFF3E84
:10048800031D402A0130F502031D292A76080319A5
:10049800522AF709F809F70A0319F80A7808F10146
:1004A800F1077708F001F00708000630F70013306D
:1004B800F600B130F500F50B5F2AF60B5F2AF70B53
:1004C8005F2A662A30300A128A114B210A128A11D1
:1004D8000630F7001330F600B130F500F50B722A3C
:1004E800F60B722AF70B722A792A30300A128A110F
:1004F8004B210A128A110230F7000430F600BA3094
:10050800F500F50B852AF60B852AF70B852A0000DE
:1005180032300A128A114B210A128A110230F7006E
:100528000430F600BA30F500F50B982AF60B982A35
:10053800F70B982A000028300A128A114B210A1258
:100548008A1128300A128A114B210A128A110C309A
:100558000A128A114B210A128A1106300A128A11CC
:100568004B21080073080319BE2A7208710470042D
:10057800031DD12A0030F0000030F1000030F200F5
:1005880008000130F5007508F30701300310F20C7C
:10059800F10CF00CFF3E031DCA2AFE307205031948
:1005A800EC2AC52A0130F5007508F3070130F00779
:1005B800003003180130F107003003180130F2074A
:1005C80001300310F20CF10CF00CFF3E031DE52A7C
:1005D800FF3072050319FB2AD62A0130F3020130D5
:1005E8000310F00DF10DF20DFF3E031DF42AF11F6B
:1005F800F12A7318052BFF30F0057F30F105FF3025
:10060800F2050310F30C7308F500F601F70110303A
:100618000310F50DF60DF70DFF3E031D0C2B7508A5
:10062800F0047608F1047708F20474080319080046
:10063800F2170800831203134008C4004108C500DC
:100648004208C6000310450D460DC7004708CD00F7
:10065800CD08031D382B0030C3000030C200003025
:10066800C1000030C00008004008C4004108C500AF
:100678004208C60017300310C60CC50CC40CFF3E58
:10068800031D3F2B4408C7004708C800C117FF30A7
:10069800C005FF30C1050030C2054008C900410847
:1006A800CA004208CB00CC018E30CD02CD1F7A2B78
:1006B8004D08803A8F3E03186A2B0030C300003083
:1006C800C2000030C1000030C00008000130031033
:1006D800CC0CCB0CCA0CC90CFF3E031D6B2B013094
:1006E800C4004408CD070319952B6A2B18304D0216
:1006F800031C922B0030C3000030C2000030C10040
:100708000030C00008000130C4000310C90DCA0D34
:10071800CB0DCC0DC40B892B0130CD02CD08031DA8
:10072800872B48080319A32BC909CA09CB09CC0987
:10073800C90A0319CA0A0319CB0A0319CC0A4C08B7
:10074800C3004B08C2004A08C1004908C00008009D
:10075800831203133308B6003408B7003508B8000D
:100768000310370D380DB9003908BE00BE08031D47
:10077800C42B0030B0000030B1000030B2000800D7
:100788003008B6003108B7003208B8000310370D3A
:10079800380DB9003908BF00BF08031DDA2B003037
:1007A800B0000030B1000030B20008000030BB00DB
:1007B8000030BC000030BD0089303F07B600360865
:1007C800BE023308B6003408B7003508B800103048
:1007D8000310B80CB70CB60CFF3E031DEC2B360803
:1007E800B9003908BF003008B6003108B700320830
:1007F800B80010300310B80CB70CB60CFF3E031D40
:10080800FE2B3608B9003908BF068030B600360816
:10081800BF05B417FF30B305FF30B4050030B50588
:10082800B117FF30B005FF30B1050030B205183000
:10083800B6003608BA0001300310BB0DBC0DBD0D63
:10084800FF3E031D202C32083502031D312C3108D0
:100858003402031D312C30083302031C3E2C3008AF
:10086800B3023108031C310FB4023208031C320AE8
:10087800B5023B1401300310B30DB40DB50DFF3EA6
:10088800031D3F2C0130BA02031D1F2C3B08F0004A
:100898003C08F1003D08F2003E08B6003608F300B7
:1008A8003F08B7003708F4000A128A11B622700808
:1008B80083120313B0007108B1007208B200080077
:1008C800831203132008A6002108A7002208A80005
:1008D8000310270D280DA9002908AA00AA08031D3E
:1008E8007C2C0030A0000030A1000030A2000800DD
:1008F8002308A6002408A7002508A8000310270D30
:10090800280DA9002908AF00AF08031D922C00305C
:10091800A0000030A1000030A20008002F087B3E94
:10092800A6002608AA072008A6002108A700220872
:10093800A80010300310A80CA70CA60CFF3E031D3E
:100948009E2C2608A9002908AF002308A600240821
:10095800A7002508A80010300310A80CA70CA60CA7
:10096800FF3E031DB02C2608A9002908AF068030D9
:10097800A6002608AF05A117A417FF30A305FF306E
:10098800A4050030A5050030AB000030AC000030F5
:10099800AD000730A6002608AE00201CE12C230875
:1009A800AB07240803110318240A031DAC07250804
:1009B80003110318250A031DAD0701300310A20C0B
:1009C800A10CA00CFF3E031DE22C01300310A30D67
:1009D800A40DA50DFF3E031DEA2C0130AE02031D38
:1009E800D12C0930A6002608AE00201C092D2308AA
:1009F800AB07240803110318240A031DAC072508B4
:100A080003110318250A031DAD0701300310A20CBA
:100A1800A10CA00CFF3E031D0A2D01300310AD0CE4
:100A2800AC0CAB0CFF3E031D122D0130AE02031DB2
:100A3800F92C2B08F0002C08F1002D08F2002A08E8
:100A4800A6002608F3002F08A7002708F4000A12BA
:100A58008A11B622700883120313A0007108A1003E
:100A68007208A2000800831603138601FF30850070
:100A780083120313D101D2010A128A1159220A12D0
:100A88008A110A128A11C4200A128A1131300A12F4
:100A98008A11E1200A128A11C0300A128A114B21E8
:100AA8000A128A1101300A128A114B210A128A117C
:100AB80000300A128A111E210A128A117108831243
:100AC8000313E501E5077008E401E40701300A12A1
:100AD8008A111E210A128A11710883120313E70171
:100AE800E7077008E601E6076508F901F9076408F1
:100AF800F801F8070A128A11FD200A128A117808EB
:100B080083120313A3007908A4007A08A500C7304C
:100B1800A0003B30A1004130A2000A128A116424CF
:100B28000A128A11831203132008B3002108B400A3
:100B38002208B5000030B0002030B1004130B200CA
:100B48000A128A11AC230A128A118312031330087D
:100B5800C0003108C1003208C2000A128A111E23DF
:100B68000A128A11831203134108E501E5074008B8
:100B7800E401E4076708F901F9076608F801F807CE
:100B88000A128A11FD200A128A11780883120313A7
:100B9800A3007908A4007A08A500E130A0003A3043
:100BA800A1004030A2000A128A1164240A128A1194
:100BB800831203132008C0002108C1002208C200C4
:100BC8000A128A111E230A128A118312031341087A
:100BD800E701E7074008E601E6076708F901F907B2
:100BE8006608F801F8070A128A11FD200A128A110C
:100BF800780883120313A3007908A4007A08A500D3
:100C08007B30A0009C30A1004030A2000A128A115B
:100C180064240A128A11831203132008B3002108DE
:100C2800B4002208B500A430B000F030B1003E3066
:100C3800B2000A128A11AC230A128A118312031312
:100C48003008D8003108D9003208DA005808B30053
:100C58005908B4005A08B5000030B0002030B1007F
:100C68004130B2000A128A11AC230A128A11831287
:100C780003133008C0003108C1003208C2000A124C
:100C88008A111E230A128A11831203134108E701ED
:100C9800E7074008E601E6076508803AFF00843068
:100CA8007F02031D592EB030640203181C2F0A302E
:100CB800F9000030FA00E830F0000330F100831248
:100CC80003136508F301F3076408F201F2070A1237
:100CD8008A11FE210A128A117108FC01FC077008AA
:100CE800FB01FB070A128A11AF210A128A1179083F
:100CF800303E83120313CE004E08DB000A30F900A1
:100D08000030FA006430F0000030F1006508F301AB
:100D1800F3076408F201F2070A128A11FE210A1287
:100D28008A117108FC01FC077008FB01FB070A1215
:100D38008A11AF210A128A117908303E83120313EF
:100D4800CE004E08DC002E30CE004E08DD000A3002
:100D5800F9000030FA000A30F0000030F1006508B0
:100D6800F301F3076408F201F2070A128A11FE215F
:100D78000A128A117108FC01FC077008FB01FB07C5
:100D88000A128A11AF210A128A117908303E831299
:100D98000313CE004E08DE000A30F9000030FA00D6
:100DA8006508FC01FC076408FB01FB070A128A11AD
:100DB800AF210A128A117908303E83120313CE003C
:100DC8004E08DF001B300A128A11E1200A128A112C
:100DD80083120313E001E1016108803AFF008030CB
:100DE8007F02031DF92E0530600203181A2F8312A3
:100DF800031360085B3E8400831300080A128A11FB
:100E08007C210A128A11013083120313E0070318A8
:100E1800E10A0030E1076108803AFF0080307F0274
:100E2800031D182F05306002031CFB2E3E301D2FBA
:100E380001300A128A11E1200A128A11C0300A12FE
:100E48008A114B210A128A11831203136708803A08
:100E5800FF008C307F02031D332F1C3066020318FD
:100E6800E02F0A30F9000030FA00E830F0000330D3
:100E7800F100831203136708F301F3076608F20110
:100E8800F2070A128A11FE210A128A117108FC015E
:100E9800FC077008FB01FB070A128A11AF210A122E
:100EA8008A117908303E83120313CE004E08D3000E
:100EB8002E30CE004E08D4000A30F9000030FA0077
:100EC8006430F0000030F1006708F301F3076608AA
:100ED800F201F2070A128A11FE210A128A11710818
:100EE800FC01FC077008FB01FB070A128A11AF21FD
:100EF8000A128A117908303E83120313CE004E0875
:100F0800D5000A30F9000030FA000A30F00000304D
:100F1800F1006708F301F3076608F201F2070A1205
:100F28008A11FE210A128A117108FC01FC07700857
:100F3800FB01FB070A128A11AF210A128A117908EC
:100F4800303E83120313CE004E08D60026300A1214
:100F58008A11E1200A128A1183120313E201E301C4
:100F68006308803AFF0080307F02031DBD2F0430E4
:100F780062020318DE2F831203136208533E8400B3
:100F8800831300080A128A117C210A128A1101307F
:100F980083120313E2070318E30A0030E307630828
:100FA800803AFF0080307F02031DDC2F043062028C
:100FB800031CBF2F3C30E12F0E300A128A11E120AA
:100FC8000A128A11103083120313D0003930CF006F
:100FD8001B30CE00CE0BEE2FCF0BEE2FD00BEE2F0B
:100FE800F52F01300A128A114B210A128A11502D4D
:080FF80083010A128A11372D52
:02400E007AFD39
:00000001FF
